{
  "contractName": "TokenTrader",
  "abi": [
    {
      "constant": true,
      "inputs": [],
      "name": "asset",
      "outputs": [
        {
          "name": "",
          "type": "address"
        }
      ],
      "payable": false,
      "stateMutability": "view",
      "type": "function"
    },
    {
      "constant": true,
      "inputs": [
        {
          "name": "",
          "type": "uint256"
        }
      ],
      "name": "User",
      "outputs": [
        {
          "name": "buyer",
          "type": "address"
        },
        {
          "name": "price_in_wei",
          "type": "uint256"
        }
      ],
      "payable": false,
      "stateMutability": "view",
      "type": "function"
    },
    {
      "constant": true,
      "inputs": [],
      "name": "sellPrice",
      "outputs": [
        {
          "name": "",
          "type": "uint256"
        }
      ],
      "payable": false,
      "stateMutability": "view",
      "type": "function"
    },
    {
      "constant": true,
      "inputs": [],
      "name": "sellsTokens",
      "outputs": [
        {
          "name": "",
          "type": "bool"
        }
      ],
      "payable": false,
      "stateMutability": "view",
      "type": "function"
    },
    {
      "constant": true,
      "inputs": [],
      "name": "buyPrice",
      "outputs": [
        {
          "name": "",
          "type": "uint256"
        }
      ],
      "payable": false,
      "stateMutability": "view",
      "type": "function"
    },
    {
      "constant": true,
      "inputs": [],
      "name": "owner",
      "outputs": [
        {
          "name": "",
          "type": "address"
        }
      ],
      "payable": false,
      "stateMutability": "view",
      "type": "function"
    },
    {
      "constant": true,
      "inputs": [],
      "name": "units",
      "outputs": [
        {
          "name": "",
          "type": "uint256"
        }
      ],
      "payable": false,
      "stateMutability": "view",
      "type": "function"
    },
    {
      "constant": true,
      "inputs": [],
      "name": "buysTokens",
      "outputs": [
        {
          "name": "",
          "type": "bool"
        }
      ],
      "payable": false,
      "stateMutability": "view",
      "type": "function"
    },
    {
      "constant": false,
      "inputs": [
        {
          "name": "newOwner",
          "type": "address"
        }
      ],
      "name": "transferOwnership",
      "outputs": [],
      "payable": false,
      "stateMutability": "nonpayable",
      "type": "function"
    },
    {
      "inputs": [
        {
          "name": "_asset",
          "type": "address"
        },
        {
          "name": "_buyPrice",
          "type": "uint256"
        },
        {
          "name": "_sellPrice",
          "type": "uint256"
        },
        {
          "name": "_units",
          "type": "uint256"
        },
        {
          "name": "_sellsTokens",
          "type": "bool"
        },
        {
          "name": "_buysTokens",
          "type": "bool"
        }
      ],
      "payable": false,
      "stateMutability": "nonpayable",
      "type": "constructor"
    },
    {
      "payable": true,
      "stateMutability": "payable",
      "type": "fallback"
    },
    {
      "anonymous": false,
      "inputs": [
        {
          "indexed": false,
          "name": "sells",
          "type": "bool"
        },
        {
          "indexed": false,
          "name": "buys",
          "type": "bool"
        }
      ],
      "name": "ActivatedEvent",
      "type": "event"
    },
    {
      "anonymous": false,
      "inputs": [],
      "name": "UpdateEvent",
      "type": "event"
    },
    {
      "anonymous": false,
      "inputs": [
        {
          "indexed": false,
          "name": "useraddress",
          "type": "address"
        },
        {
          "indexed": false,
          "name": "id",
          "type": "uint256"
        }
      ],
      "name": "UserCreated",
      "type": "event"
    },
    {
      "constant": false,
      "inputs": [
        {
          "name": "_sellsTokens",
          "type": "bool"
        },
        {
          "name": "_buysTokens",
          "type": "bool"
        }
      ],
      "name": "activate",
      "outputs": [],
      "payable": false,
      "stateMutability": "nonpayable",
      "type": "function"
    },
    {
      "constant": false,
      "inputs": [],
      "name": "deposit",
      "outputs": [],
      "payable": true,
      "stateMutability": "payable",
      "type": "function"
    },
    {
      "constant": false,
      "inputs": [
        {
          "name": "_value",
          "type": "uint256"
        }
      ],
      "name": "withdrawAsset",
      "outputs": [
        {
          "name": "ok",
          "type": "bool"
        }
      ],
      "payable": false,
      "stateMutability": "nonpayable",
      "type": "function"
    },
    {
      "constant": false,
      "inputs": [
        {
          "name": "_token",
          "type": "address"
        },
        {
          "name": "_value",
          "type": "uint256"
        }
      ],
      "name": "withdrawToken",
      "outputs": [
        {
          "name": "ok",
          "type": "bool"
        }
      ],
      "payable": false,
      "stateMutability": "nonpayable",
      "type": "function"
    },
    {
      "constant": false,
      "inputs": [
        {
          "name": "_value",
          "type": "uint256"
        }
      ],
      "name": "withdraw",
      "outputs": [
        {
          "name": "ok",
          "type": "bool"
        }
      ],
      "payable": false,
      "stateMutability": "nonpayable",
      "type": "function"
    },
    {
      "constant": false,
      "inputs": [],
      "name": "buy",
      "outputs": [],
      "payable": true,
      "stateMutability": "payable",
      "type": "function"
    },
    {
      "constant": false,
      "inputs": [
        {
          "name": "amount",
          "type": "uint256"
        }
      ],
      "name": "sell",
      "outputs": [],
      "payable": false,
      "stateMutability": "nonpayable",
      "type": "function"
    },
    {
      "constant": false,
      "inputs": [
        {
          "name": "_id",
          "type": "uint256"
        }
      ],
      "name": "refund_ether",
      "outputs": [],
      "payable": false,
      "stateMutability": "nonpayable",
      "type": "function"
    }
  ],
  "bytecode": "0x6080604052600060065534801561001557600080fd5b5060405160c080611494833981018060405281019080805190602001909291908051906020019092919080519060200190929190805190602001909291908051906020019092919080519060200190929190505050336000806101000a81548173ffffffffffffffffffffffffffffffffffffffff021916908373ffffffffffffffffffffffffffffffffffffffff16021790555085600160006101000a81548173ffffffffffffffffffffffffffffffffffffffff021916908373ffffffffffffffffffffffffffffffffffffffff16021790555084600281905550836003819055508260048190555081600560006101000a81548160ff02191690831515021790555080600560016101000a81548160ff0219169083151502179055507ffa4f96c42c616d6fbda491095977a6af7c76ebd387177b72299180502cbeaa99600560009054906101000a900460ff16600560019054906101000a900460ff166040518083151515158152602001821515151581526020019250505060405180910390a15050505050506112e6806101ae6000396000f3006080604052600436106100f1576000357c0100000000000000000000000000000000000000000000000000000000900463ffffffff1680632e1a7d4d146100fb57806338d52e0f146101405780633fbb468a146101975780634b7503341461020b5780634ca50f59146102365780638620410b146102655780638d92fdf3146102905780638da5cb5b146102d5578063976a84351461032c5780639e281a9814610357578063a6f2ae3a146103bc578063a7abc124146103c6578063b109934714610401578063ccce6e2214610430578063d0e30db01461045d578063e4849b3214610467578063f2fde38b14610494575b6100f96104d7565b005b34801561010757600080fd5b50610126600480360381019080803590602001909291905050506108e9565b604051808215151515815260200191505060405180910390f35b34801561014c57600080fd5b506101556109f5565b604051808273ffffffffffffffffffffffffffffffffffffffff1673ffffffffffffffffffffffffffffffffffffffff16815260200191505060405180910390f35b3480156101a357600080fd5b506101c260048036038101908080359060200190929190505050610a1b565b604051808373ffffffffffffffffffffffffffffffffffffffff1673ffffffffffffffffffffffffffffffffffffffff1681526020018281526020019250505060405180910390f35b34801561021757600080fd5b50610220610a5f565b6040518082815260200191505060405180910390f35b34801561024257600080fd5b5061024b610a65565b604051808215151515815260200191505060405180910390f35b34801561027157600080fd5b5061027a610a78565b6040518082815260200191505060405180910390f35b34801561029c57600080fd5b506102bb60048036038101908080359060200190929190505050610a7e565b604051808215151515815260200191505060405180910390f35b3480156102e157600080fd5b506102ea610c03565b604051808273ffffffffffffffffffffffffffffffffffffffff1673ffffffffffffffffffffffffffffffffffffffff16815260200191505060405180910390f35b34801561033857600080fd5b50610341610c28565b6040518082815260200191505060405180910390f35b34801561036357600080fd5b506103a2600480360381019080803573ffffffffffffffffffffffffffffffffffffffff16906020019092919080359060200190929190505050610c2e565b604051808215151515815260200191505060405180910390f35b6103c46104d7565b005b3480156103d257600080fd5b506103ff600480360381019080803515159060200190929190803515159060200190929190505050610d92565b005b34801561040d57600080fd5b50610416610e8a565b604051808215151515815260200191505060405180910390f35b34801561043c57600080fd5b5061045b60048036038101908080359060200190929190505050610e9d565b005b610465610f22565b005b34801561047357600080fd5b5061049260048036038101908080359060200190929190505050610fab565b005b3480156104a057600080fd5b506104d5600480360381019080803573ffffffffffffffffffffffffffffffffffffffff16906020019092919050505061121c565b005b6000806000600160066000828254019250508190555060408051908101604052803373ffffffffffffffffffffffffffffffffffffffff1681526020013481525060076000600654815260200190815260200160002060008201518160000160006101000a81548173ffffffffffffffffffffffffffffffffffffffff021916908373ffffffffffffffffffffffffffffffffffffffff16021790555060208201518160010155905050600560009054906101000a900460ff16806105e857506000809054906101000a900473ffffffffffffffffffffffffffffffffffffffff1673ffffffffffffffffffffffffffffffffffffffff163373ffffffffffffffffffffffffffffffffffffffff16145b156108a357600354348115156105fa57fe5b049250600454600160009054906101000a900473ffffffffffffffffffffffffffffffffffffffff1673ffffffffffffffffffffffffffffffffffffffff166370a08231306040518263ffffffff167c0100000000000000000000000000000000000000000000000000000000028152600401808273ffffffffffffffffffffffffffffffffffffffff1673ffffffffffffffffffffffffffffffffffffffff168152602001915050602060405180830381600087803b1580156106bd57600080fd5b505af11580156106d1573d6000803e3d6000fd5b505050506040513d60208110156106e757600080fd5b810190808051906020019092919050505081151561070157fe5b04915081831115610759576003548202340390508192503373ffffffffffffffffffffffffffffffffffffffff166108fc829081150290604051600060405180830381858888f19350505050151561075857600080fd5b5b600083111561087257600160009054906101000a900473ffffffffffffffffffffffffffffffffffffffff1673ffffffffffffffffffffffffffffffffffffffff1663a9059cbb3360045486026040518363ffffffff167c0100000000000000000000000000000000000000000000000000000000028152600401808373ffffffffffffffffffffffffffffffffffffffff1673ffffffffffffffffffffffffffffffffffffffff16815260200182815260200192505050602060405180830381600087803b15801561082b57600080fd5b505af115801561083f573d6000803e3d6000fd5b505050506040513d602081101561085557600080fd5b8101908080519060200190929190505050151561087157600080fd5b5b7f36ff37f436d9a671f4776bd73e3be89800c29518da3abc0618ef2b18c707481f60405160405180910390a16108e4565b3373ffffffffffffffffffffffffffffffffffffffff166108fc349081150290604051600060405180830381858888f1935050505015156108e357600080fd5b5b505050565b60008060009054906101000a900473ffffffffffffffffffffffffffffffffffffffff1673ffffffffffffffffffffffffffffffffffffffff163373ffffffffffffffffffffffffffffffffffffffff1614151561094657600080fd5b813073ffffffffffffffffffffffffffffffffffffffff16311015156109c3576000809054906101000a900473ffffffffffffffffffffffffffffffffffffffff1673ffffffffffffffffffffffffffffffffffffffff166108fc839081150290604051600060405180830381858888f1935050505090506109f0565b7f36ff37f436d9a671f4776bd73e3be89800c29518da3abc0618ef2b18c707481f60405160405180910390a15b919050565b600160009054906101000a900473ffffffffffffffffffffffffffffffffffffffff1681565b60076020528060005260406000206000915090508060000160009054906101000a900473ffffffffffffffffffffffffffffffffffffffff16908060010154905082565b60035481565b600560009054906101000a900460ff1681565b60025481565b60008060009054906101000a900473ffffffffffffffffffffffffffffffffffffffff1673ffffffffffffffffffffffffffffffffffffffff163373ffffffffffffffffffffffffffffffffffffffff16141515610adb57600080fd5b600160009054906101000a900473ffffffffffffffffffffffffffffffffffffffff1673ffffffffffffffffffffffffffffffffffffffff1663a9059cbb6000809054906101000a900473ffffffffffffffffffffffffffffffffffffffff16846040518363ffffffff167c0100000000000000000000000000000000000000000000000000000000028152600401808373ffffffffffffffffffffffffffffffffffffffff1673ffffffffffffffffffffffffffffffffffffffff16815260200182815260200192505050602060405180830381600087803b158015610bc157600080fd5b505af1158015610bd5573d6000803e3d6000fd5b505050506040513d6020811015610beb57600080fd5b81019080805190602001909291905050509050919050565b6000809054906101000a900473ffffffffffffffffffffffffffffffffffffffff1681565b60045481565b60008060009054906101000a900473ffffffffffffffffffffffffffffffffffffffff1673ffffffffffffffffffffffffffffffffffffffff163373ffffffffffffffffffffffffffffffffffffffff16141515610c8b57600080fd5b8273ffffffffffffffffffffffffffffffffffffffff1663a9059cbb6000809054906101000a900473ffffffffffffffffffffffffffffffffffffffff16846040518363ffffffff167c0100000000000000000000000000000000000000000000000000000000028152600401808373ffffffffffffffffffffffffffffffffffffffff1673ffffffffffffffffffffffffffffffffffffffff16815260200182815260200192505050602060405180830381600087803b158015610d4f57600080fd5b505af1158015610d63573d6000803e3d6000fd5b505050506040513d6020811015610d7957600080fd5b8101908080519060200190929190505050905092915050565b6000809054906101000a900473ffffffffffffffffffffffffffffffffffffffff1673ffffffffffffffffffffffffffffffffffffffff163373ffffffffffffffffffffffffffffffffffffffff16141515610ded57600080fd5b81600560006101000a81548160ff02191690831515021790555080600560016101000a81548160ff0219169083151502179055507ffa4f96c42c616d6fbda491095977a6af7c76ebd387177b72299180502cbeaa99600560009054906101000a900460ff16600560019054906101000a900460ff166040518083151515158152602001821515151581526020019250505060405180910390a15050565b600560019054906101000a900460ff1681565b6007600082815260200190815260200160002060000160009054906101000a900473ffffffffffffffffffffffffffffffffffffffff1673ffffffffffffffffffffffffffffffffffffffff166108fc60076000848152602001908152602001600020600101549081150290604051600060405180830381858888f193505050505050565b6000809054906101000a900473ffffffffffffffffffffffffffffffffffffffff1673ffffffffffffffffffffffffffffffffffffffff163373ffffffffffffffffffffffffffffffffffffffff16141515610f7d57600080fd5b7f36ff37f436d9a671f4776bd73e3be89800c29518da3abc0618ef2b18c707481f60405160405180910390a1565b600080600560019054906101000a900460ff168061101557506000809054906101000a900473ffffffffffffffffffffffffffffffffffffffff1673ffffffffffffffffffffffffffffffffffffffff163373ffffffffffffffffffffffffffffffffffffffff16145b15611217576002543073ffffffffffffffffffffffffffffffffffffffff163181151561103e57fe5b0491506004548381151561104e57fe5b0490508181111561105d578190505b60008111156111ea57600160009054906101000a900473ffffffffffffffffffffffffffffffffffffffff1673ffffffffffffffffffffffffffffffffffffffff166323b872dd3330866040518463ffffffff167c0100000000000000000000000000000000000000000000000000000000028152600401808473ffffffffffffffffffffffffffffffffffffffff1673ffffffffffffffffffffffffffffffffffffffff1681526020018373ffffffffffffffffffffffffffffffffffffffff1673ffffffffffffffffffffffffffffffffffffffff1681526020018281526020019350505050602060405180830381600087803b15801561115f57600080fd5b505af1158015611173573d6000803e3d6000fd5b505050506040513d602081101561118957600080fd5b810190808051906020019092919050505015156111a557600080fd5b3373ffffffffffffffffffffffffffffffffffffffff166108fc60025483029081150290604051600060405180830381858888f1935050505015156111e957600080fd5b5b7f36ff37f436d9a671f4776bd73e3be89800c29518da3abc0618ef2b18c707481f60405160405180910390a15b505050565b6000809054906101000a900473ffffffffffffffffffffffffffffffffffffffff1673ffffffffffffffffffffffffffffffffffffffff163373ffffffffffffffffffffffffffffffffffffffff1614151561127757600080fd5b806000806101000a81548173ffffffffffffffffffffffffffffffffffffffff021916908373ffffffffffffffffffffffffffffffffffffffff160217905550505600a165627a7a72305820f8d0c80dedb55604ebe49dab8668764d094eda7effc2372ae2726a336118edb10029",
  "source": "pragma solidity ^0.4.0;\n\ncontract ERC20Constant {\n    function totalSupply() constant returns (uint supply);\n    function balanceOf( address who ) constant returns (uint value);\n    function allowance(address owner, address spender) constant returns (uint _allowance);\n}\ncontract ERC20Stateful {\n    function transfer( address to, uint value) returns (bool ok);\n    function transferFrom( address from, address to, uint value) returns (bool ok);\n    function approve(address spender, uint value) returns (bool ok);\n}\ncontract ERC20Events {\n    event Transfer(address indexed from, address indexed to, uint value);\n    event Approval( address indexed owner, address indexed spender, uint value);\n}\ncontract ERC20 is ERC20Constant, ERC20Stateful, ERC20Events {}\n\ncontract owned {\n    address public owner;\n\n    function owned() {\n        owner = msg.sender;\n    }\n\n    modifier onlyOwner {\n        if (msg.sender != owner) throw;\n        _;\n    }\n\n    function transferOwnership(address newOwner) onlyOwner {\n        owner = newOwner;\n    }\n}\n\n// contract can buy or sell tokens for ETH\n// prices are in amount of wei per batch of token units\n\ncontract TokenTrader is owned {\n\n    address public asset;       // address of token\n    uint256 public buyPrice;   // contact buys lots of token at this price\n    uint256 public sellPrice;  // contract sells lots at this price\n    uint256 public units;       // lot size (token-wei)\n\n    bool public sellsTokens;    // is contract selling\n    bool public buysTokens;     // is contract buying\n\n    event ActivatedEvent(bool sells, bool buys);\n    event UpdateEvent();\n    event UserCreated(address useraddress, uint256 id);\n\n    uint256 id = 0;\n\n    struct  Userdata{\n    address buyer;\n    uint256 price_in_wei;\n    }\n\n    mapping (uint256 => Userdata) public User;\n\n    function TokenTrader (\n    address _asset,\n    uint256 _buyPrice,\n    uint256 _sellPrice,\n    uint256 _units,\n    bool    _sellsTokens,\n    bool    _buysTokens\n    )\n    {\n        asset         = _asset;\n        buyPrice     = _buyPrice;\n        sellPrice    = _sellPrice;\n        units         = _units;\n        sellsTokens   = _sellsTokens;\n        buysTokens    = _buysTokens;\n\n        ActivatedEvent(sellsTokens,buysTokens);\n    }\n\n    // modify trading behavior\n    function activate (\n    bool    _sellsTokens,\n    bool    _buysTokens\n    ) onlyOwner\n    {\n        sellsTokens   = _sellsTokens;\n        buysTokens    = _buysTokens;\n\n        ActivatedEvent(sellsTokens,buysTokens);\n    }\n\n    // allows owner to deposit ETH\n    // deposit tokens by sending them directly to contract\n    // buyers must not send tokens to the contract, use: sell(...)\n    function deposit() payable onlyOwner {\n        UpdateEvent();\n    }\n\n    // allow owner to remove trade token\n    function withdrawAsset(uint256 _value) onlyOwner returns (bool ok)\n    {\n        return ERC20(asset).transfer(owner,_value);\n        UpdateEvent();\n    }\n\n    // allow owner to remove arbitrary tokens\n    // included just in case contract receives wrong token\n    function withdrawToken(address _token, uint256 _value) onlyOwner returns (bool ok)\n    {\n        return ERC20(_token).transfer(owner,_value);\n        UpdateEvent();\n    }\n\n    // allow owner to remove ETH\n    function withdraw(uint256 _value) onlyOwner returns (bool ok)\n    {\n        if(this.balance >= _value) {\n            return owner.send(_value);\n        }\n        UpdateEvent();\n    }\n\n    //user buys token with ETH\n    function buy() payable {\n        id+=1;\n        User[id] = Userdata(msg.sender, msg.value);\n\n        if(sellsTokens || msg.sender == owner)\n        {\n            uint order   = msg.value / sellPrice;\n            uint can_sell = ERC20(asset).balanceOf(address(this)) / units;\n\n            if(order > can_sell)\n            {\n                uint256 change = msg.value - (can_sell * sellPrice);\n                order = can_sell;\n                if(!msg.sender.send(change)) throw;\n            }\n\n            if(order > 0) {\n                if(!ERC20(asset).transfer(msg.sender,order * units)) throw;\n            }\n            UpdateEvent();\n        }\n        else if(!msg.sender.send(msg.value)) throw;  // return user funds if the contract is not selling\n    }\n\n    // user sells token for ETH\n    // user must set allowance for this contract before calling\n    function sell(uint256 amount) {\n        if (buysTokens || msg.sender == owner) {\n            uint256 can_buy = this.balance / buyPrice;  // token lots contract can buy\n            uint256 order = amount / units;             // token lots available\n\n            if(order > can_buy) order = can_buy;        // adjust order for funds\n\n            if (order > 0)\n            {\n                // extract user tokens\n                if(!ERC20(asset).transferFrom(msg.sender, address(this), amount)) throw;\n\n                // pay user\n                if(!msg.sender.send(order * buyPrice)) throw;\n            }\n            UpdateEvent();\n        }\n    }\n\n    function refund_ether(uint256 _id) {\n        User[_id].buyer.send(User[_id].price_in_wei);\n    }\n\n    // sending ETH to contract sells ETH to user (fallback function)\n    function () payable {\n        buy();\n    }\n}",
  "sourcePath": "/Users/rk/githubProjects/truffle-ethereum/contracts/TokenTrader.sol",
  "compiler": {
    "name": "solc",
    "version": "0.4.23+commit.124ca40d.Emscripten.clang"
  },
  "schemaVersion": "2.0.0",
  "updatedAt": "2018-04-28T12:24:27.500Z"
}